[
["The following are deserialized transactions which are valid."],
["They are in the form"],
["[[[prevout hash, prevout index, prevout scriptPubKey], [input 2], ...],"],
["serializedTransaction, enforceP2SH]"],
["Objects that are only a single string (like this one) are ignored"],

["The following is ac8ea25c132aef10e101cecf1d740a8ca0cf68b4d65ad0ebfb151f1fb6564ae5"],
[[["fa852ba81b10973b4b1ad5dd3f0d1bc442d948e052df44622219f7db70695c62", 0, "DUP HASH160 0x14 0x854ade32ea62f42d825ff3e781d6921da9f56ce5 EQUALVERIFY CHECKSIG"],
["e5ce3666c113f8b596a16f1e3f1e80a82f29e36d6abf3c8d1dfbe0418590c37a", 0, "DUP HASH160 0x14 0x854ade32ea62f42d825ff3e781d6921da9f56ce5 EQUALVERIFY CHECKSIG"],
["34e1f81d437e9790984de1233b70163a8004df44928cffe42f28fadab8962fee", 1, "DUP HASH160 0x14 0x961625fb6a72fafec5d1f2de4b182bc2508b2ba0 EQUALVERIFY CHECKSIG"]],
"0100000003625c6970dbf719226244df52e048d942c41b0d3fddd51a4b3b97101ba82b85fa000000006b483045022100e751dce59ff2a5c7eb96d36b922128f48054c2110ac99cf0aafeee4d5477d11302207f72d3e4f0c6775ed2f6fc56c5759da8184d909c2ad46e224bc4861010c0519201210345a6b3107323752535fec2ba878523437f814dceef46c51ceb9d20b39e5f6f09ffffffff7ac3908541e0fb1d8d3cbf6a6de3292fa8801e3f1e6fa196b5f813c16636cee5000000006c493046022100f586670b36513ffa7bef277b0742ef6cd82fb3d734aba3479db50db0952da4d202210095f7e81f8dad3012419aa214570ad1eaeec0632a51b9a34df1ad5cd974dc255601210345a6b3107323752535fec2ba878523437f814dceef46c51ceb9d20b39e5f6f09ffffffffee2f96b8dafa282fe4ff8c9244df04803a16703b23e14d9890977e431df8e134010000006c493046022100c87ba1ae7b7d7d2e741a70a0ce0d2ef124fb804f50e5246b0218443a00f8bc530221008ba4b34430b5687b4433ea4e3afa54fd578679ebb3ad08a0f37b3f2238e0d4f20121039c35d8b28aaa3c74e569d469f9c3d887b2d464fc73a12b072874af3d7d6f5bb9ffffffff02dca51400000000001976a914f69ab9ded3d6edc15aab6c7172909665b9dcca8a88ac80d50000000000001976a9148baa3c6b328b993470e2fb3bdb057297dcce4b8b88ac00000000", true],

["A nearly-standard transaction with CHECKSIGVERIFY 1 instead of CHECKSIG"],
[[["0000000000000000000000000000000000000000000000000000000000000100", 0, "DUP HASH160 0x14 0x5b6462475454710f3c22f5fdf0b40704c92f25c3 EQUALVERIFY CHECKSIGVERIFY 1"]],
"01000000010001000000000000000000000000000000000000000000000000000000000000000000006a473044022067288ea50aa799543a536ff9306f8e1cba05b9c6b10951175b924f96732555ed022026d7b5265f38d21541519e4a1e55044d5b9e17e15cdbaf29ae3792e99e883e7a012103ba8c8b86dea131c22ab967e6dd99bdae8eff7a1f75a2c35f1f944109e3fe5e22ffffffff010000000000000000015100000000", true],

["Same as above, but with the signature duplicated in the scriptPubKey with the proper pushdata prefix"],
[[["0000000000000000000000000000000000000000000000000000000000000100", 0, "DUP HASH160 0x14 0x5b6462475454710f3c22f5fdf0b40704c92f25c3 EQUALVERIFY CHECKSIGVERIFY 1 0x47 0x3044022067288ea50aa799543a536ff9306f8e1cba05b9c6b10951175b924f96732555ed022026d7b5265f38d21541519e4a1e55044d5b9e17e15cdbaf29ae3792e99e883e7a01"]],
"01000000010001000000000000000000000000000000000000000000000000000000000000000000006a473044022067288ea50aa799543a536ff9306f8e1cba05b9c6b10951175b924f96732555ed022026d7b5265f38d21541519e4a1e55044d5b9e17e15cdbaf29ae3792e99e883e7a012103ba8c8b86dea131c22ab967e6dd99bdae8eff7a1f75a2c35f1f944109e3fe5e22ffffffff010000000000000000015100000000", true],

["The following tests for the presence of a bug in the handling of SIGHASH_SINGLE"],
["It results in signing the constant 1, instead of something generated based on the transaction,"],
["when the input doing the signing has an index greater than the maximum output index"],
[[["0000000000000000000000000000000000000000000000000000000000000100", 0, "DUP HASH160 0x14 0xe52b482f2faa8ecbf0db344f93c84ac908557f33 EQUALVERIFY CHECKSIG"], ["0000000000000000000000000000000000000000000000000000000000000200", 0, "1"]],
"01000000020002000000000000000000000000000000000000000000000000000000000000000000000151ffffffff0001000000000000000000000000000000000000000000000000000000000000000000006b483045022100c9cdd08798a28af9d1baf44a6c77bcc7e279f47dc487c8c899911bc48feaffcc0220503c5c50ae3998a733263c5c0f7061b483e2b56c4c41b456e7d2f5a78a74c077032102d5c25adb51b61339d2b05315791e21bbe80ea470a49db0135720983c905aace0ffffffff010000000000000000015100000000", true],

["An invalid P2SH Transaction"],
[[["0000000000000000000000000000000000000000000000000000000000000100", 0, "HASH160 0x14 0x7a052c840ba73af26755de42cf01cc9e0a49fef0 EQUAL"]],
"010000000100010000000000000000000000000000000000000000000000000000000000000000000009085768617420697320ffffffff010000000000000000015100000000", false],

["A valid P2SH Transaction using the standard transaction type put forth in BIP 16"],
[[["0000000000000000000000000000000000000000000000000000000000000100", 0, "HASH160 0x14 0x8febbed40483661de6958d957412f82deed8e2f7 EQUAL"]],
"01000000010001000000000000000000000000000000000000000000000000000000000000000000006e493046022100c66c9cdf4c43609586d15424c54707156e316d88b0a1534c9e6b0d4f311406310221009c0fe51dbc9c4ab7cc25d3fdbeccf6679fe6827f08edf2b4a9f16ee3eb0e438a0123210338e8034509af564c62644c07691942e0c056752008a173c89f60ab2a88ac2ebfacffffffff010000000000000000015100000000", true],

["Coinbase of size 2"],
["Note the input is just required to make the tester happy"],
[[["0000000000000000000000000000000000000000000000000000000000000000", -1, "1"]],
"01000000010000000000000000000000000000000000000000000000000000000000000000ffffffff025151ffffffff010000000000000000015100000000", true],

["Coinbase of size 100"],
["Note the input is just required to make the tester happy"],
[[["0000000000000000000000000000000000000000000000000000000000000000", -1, "1"]],
"01000000010000000000000000000000000000000000000000000000000000000000000000ffffffff6451515151515151515151515151515151515151515151515151515151515151515151515151515151515151515151515151515151515151515151515151515151515151515151515151515151515151515151515151515151515151515151515151515151ffffffff010000000000000000015100000000", true],

["Simple transaction with first input is signed with SIGHASH_ALL, second with SIGHASH_ANYONECANPAY"],
[[["0000000000000000000000000000000000000000000000000000000000000100", 0, "0x21 0x035e7f0d4d0841bcd56c39337ed086b1a633ee770c1ffdd94ac552a95ac2ce0efc CHECKSIG"],
  ["0000000000000000000000000000000000000000000000000000000000000200", 0, "0x21 0x035e7f0d4d0841bcd56c39337ed086b1a633ee770c1ffdd94ac552a95ac2ce0efc CHECKSIG"]],
 "010000000200010000000000000000000000000000000000000000000000000000000000000000000049483045022100d180fd2eb9140aeb4210c9204d3f358766eb53842b2a9473db687fa24b12a3cc022079781799cd4f038b85135bbe49ec2b57f306b2bb17101b17f71f000fcab2b6fb01ffffffff0002000000000000000000000000000000000000000000000000000000000000000000004847304402205f7530653eea9b38699e476320ab135b74771e1c48b81a5d041e2ca84b9be7a802200ac8d1f40fb026674fe5a5edd3dea715c27baa9baca51ed45ea750ac9dc0a55e81ffffffff010100000000000000015100000000", true],

["Same as above, but we change the sequence number of the first input to check that SIGHASH_ANYONECANPAY is being followed"],
[[["0000000000000000000000000000000000000000000000000000000000000100", 0, "0x21 0x035e7f0d4d0841bcd56c39337ed086b1a633ee770c1ffdd94ac552a95ac2ce0efc CHECKSIG"],
  ["0000000000000000000000000000000000000000000000000000000000000200", 0, "0x21 0x035e7f0d4d0841bcd56c39337ed086b1a633ee770c1ffdd94ac552a95ac2ce0efc CHECKSIG"]],
 "01000000020001000000000000000000000000000000000000000000000000000000000000000000004948304502203a0f5f0e1f2bdbcd04db3061d18f3af70e07f4f467cbc1b8116f267025f5360b022100c792b6e215afc5afc721a351ec413e714305cb749aae3d7fee76621313418df101010000000002000000000000000000000000000000000000000000000000000000000000000000004847304402205f7530653eea9b38699e476320ab135b74771e1c48b81a5d041e2ca84b9be7a802200ac8d1f40fb026674fe5a5edd3dea715c27baa9baca51ed45ea750ac9dc0a55e81ffffffff010100000000000000015100000000", true],

["Make diffs cleaner by leaving a comment here without comma at the end"]
]
